{
  "_format": "hh-sol-artifact-1",
  "contractName": "AetheriaFactory",
  "sourceName": "src/AetheriaFactory.sol",
  "abi": [
    {
      "anonymous": false,
      "inputs": [
        {
          "indexed": true,
          "internalType": "address",
          "name": "agent",
          "type": "address"
        },
        {
          "indexed": true,
          "internalType": "address",
          "name": "owner",
          "type": "address"
        },
        {
          "indexed": true,
          "internalType": "address",
          "name": "signer",
          "type": "address"
        }
      ],
      "name": "AgentDeployed",
      "type": "event"
    },
    {
      "inputs": [
        {
          "internalType": "address",
          "name": "_owner",
          "type": "address"
        },
        {
          "internalType": "address",
          "name": "_signer",
          "type": "address"
        },
        {
          "internalType": "string",
          "name": "_metadataURI",
          "type": "string"
        },
        {
          "internalType": "bytes32",
          "name": "_salt",
          "type": "bytes32"
        }
      ],
      "name": "computeAddress",
      "outputs": [
        {
          "internalType": "address",
          "name": "",
          "type": "address"
        }
      ],
      "stateMutability": "view",
      "type": "function"
    },
    {
      "inputs": [
        {
          "internalType": "address",
          "name": "_owner",
          "type": "address"
        },
        {
          "internalType": "address",
          "name": "_signer",
          "type": "address"
        },
        {
          "internalType": "string",
          "name": "_metadataURI",
          "type": "string"
        },
        {
          "internalType": "bytes32",
          "name": "_salt",
          "type": "bytes32"
        }
      ],
      "name": "deployAgent",
      "outputs": [
        {
          "internalType": "address",
          "name": "",
          "type": "address"
        }
      ],
      "stateMutability": "nonpayable",
      "type": "function"
    },
    {
      "inputs": [
        {
          "internalType": "address",
          "name": "_owner",
          "type": "address"
        },
        {
          "internalType": "address",
          "name": "_signer",
          "type": "address"
        },
        {
          "internalType": "string",
          "name": "_metadataURI",
          "type": "string"
        },
        {
          "internalType": "bytes32",
          "name": "_salt",
          "type": "bytes32"
        },
        {
          "internalType": "address",
          "name": "target",
          "type": "address"
        },
        {
          "internalType": "uint256",
          "name": "value",
          "type": "uint256"
        },
        {
          "internalType": "bytes",
          "name": "data",
          "type": "bytes"
        },
        {
          "internalType": "uint256",
          "name": "deadline",
          "type": "uint256"
        },
        {
          "internalType": "bytes",
          "name": "signature",
          "type": "bytes"
        }
      ],
      "name": "deployAndDelegatedExecute",
      "outputs": [
        {
          "internalType": "address",
          "name": "",
          "type": "address"
        }
      ],
      "stateMutability": "nonpayable",
      "type": "function"
    },
    {
      "inputs": [
        {
          "internalType": "address",
          "name": "_owner",
          "type": "address"
        },
        {
          "internalType": "address",
          "name": "_signer",
          "type": "address"
        },
        {
          "internalType": "string",
          "name": "_metadataURI",
          "type": "string"
        },
        {
          "internalType": "bytes32",
          "name": "_salt",
          "type": "bytes32"
        },
        {
          "internalType": "address",
          "name": "token",
          "type": "address"
        },
        {
          "internalType": "address",
          "name": "to",
          "type": "address"
        },
        {
          "internalType": "uint256",
          "name": "amount",
          "type": "uint256"
        },
        {
          "internalType": "uint256",
          "name": "deadline",
          "type": "uint256"
        },
        {
          "internalType": "bytes",
          "name": "signature",
          "type": "bytes"
        }
      ],
      "name": "deployAndDelegatedPayERC20",
      "outputs": [
        {
          "internalType": "address",
          "name": "",
          "type": "address"
        }
      ],
      "stateMutability": "nonpayable",
      "type": "function"
    },
    {
      "inputs": [
        {
          "internalType": "address",
          "name": "_owner",
          "type": "address"
        },
        {
          "internalType": "address",
          "name": "_signer",
          "type": "address"
        },
        {
          "internalType": "string",
          "name": "_metadataURI",
          "type": "string"
        },
        {
          "internalType": "bytes32",
          "name": "_salt",
          "type": "bytes32"
        },
        {
          "internalType": "address payable",
          "name": "to",
          "type": "address"
        },
        {
          "internalType": "uint256",
          "name": "amount",
          "type": "uint256"
        },
        {
          "internalType": "uint256",
          "name": "deadline",
          "type": "uint256"
        },
        {
          "internalType": "bytes",
          "name": "signature",
          "type": "bytes"
        }
      ],
      "name": "deployAndDelegatedPayEth",
      "outputs": [
        {
          "internalType": "address",
          "name": "",
          "type": "address"
        }
      ],
      "stateMutability": "nonpayable",
      "type": "function"
    }
  ],
  "bytecode": "0x6080806040523461001657612919908161001c8239f35b600080fdfe604060808152600490813610156200001657600080fd5b600090813560e01c806357f5b1e5146200052f57806390ef78ab146200048a5780639a4bc1f11462000332578063ad41a03414620002205763f49c860e146200005e57600080fd5b346200021c57600319906101203683011262000218576200007e62000677565b916200008962000693565b906044359567ffffffffffffffff968781116200021457620000af90369083016200070f565b96620000ba620006aa565b9260c435828111620001ef57620000d590369085016200076b565b949092610104358181116200021057620000f390369087016200076b565b92909189516120408082019282841090841117620001fd57620001298e9f8e9f9c809e9f8594620008848639606435966200081c565b03908af5948515620001f3578a516001600160a01b039687169c909a87169087168d600080516020620028c48339815191528c80a48b3b15620001ef5789978897620001b5976200019d94631368d30b60e21b8b52169089015260a435602489015260a0604489015260a488019162000862565b9260e435606487015285840301608486015262000862565b038183875af18015620001e55760209450620001d3575b5051908152f35b620001de90620006c1565b38620001cc565b82513d86823e3d90fd5b8880fd5b8a513d8a823e3d90fd5b634e487b7160e01b8e526041895260248efd5b8a80fd5b8680fd5b8280fd5b5080fd5b50829034620002185791620002ba6200029193620002c762000242366200079c565b95929391906120409486519160209b8c9462000261868a0186620006ec565b88855285850198620008848a39620002828a5193849288840196876200081c565b03601f198101835282620006ec565b8751958693620002aa868601998a9251928391620007f7565b84019151809386840190620007f7565b01038084520182620006ec565b519020928151938685019360ff60f81b85523060601b60218701526035860152605585015260558452608084019484861067ffffffffffffffff8711176200031f575050839052905190206001600160a01b03168152f35b634e487b7160e01b825260419052602490fd5b50346200021c576101203660031901126200021c576200035162000677565b906200035c62000693565b67ffffffffffffffff9460443586811162000486576200038090369083016200070f565b956200038b620006aa565b6001600160a01b039160a43583811690819003620001ef57610104358281116200048257620003be90369087016200076b565b919092885161204080820192828410908411176200046f57620003f48d9e8b8e9f9c9d9e8594620008848639606435966200081c565b039089f58015620004655785169985808b519a1691168b600080516020620028c48339815191528a80a4893b15620002145787958695620001b59563dd91368960e01b88521690860152602485015260c435604485015260e435606485015260a0608485015260a484019162000862565b89513d89823e3d90fd5b634e487b7160e01b8d526041895260248dfd5b8980fd5b8580fd5b5082903462000218576200049e366200079c565b9194908451916120408084019184831067ffffffffffffffff8411176200051c5750918786620004d69386956200088487396200081c565b039086f591821562000513575160209490936001600160a01b03938416939081169216908390600080516020620028c48339815191529080a48152f35b513d85823e3d90fd5b634e487b7160e01b8a5260419052602489fd5b50346200021c576101003660031901126200021c576200054e62000677565b906200055962000693565b67ffffffffffffffff9260443584811162000486576200057d90369088016200070f565b956001600160a01b0394608435868116929190839003620006735760e435818111620001ef57620005b290369084016200076b565b949091875161204080820192828410908411176200066057620005e98c9d83929d9a9b9c9d6200088484398b86606435966200081c565b039088f5801562000656578916988089519816911689600080516020620028c48339815191528880a4873b15620006525785938493620001b5936372cd73f160e11b865285015260a435602485015260c435604485015260806064850152608484019162000862565b8480fd5b88513d88823e3d90fd5b634e487b7160e01b8c526041865260248cfd5b8780fd5b600435906001600160a01b03821682036200068e57565b600080fd5b602435906001600160a01b03821682036200068e57565b608435906001600160a01b03821682036200068e57565b67ffffffffffffffff8111620006d657604052565b634e487b7160e01b600052604160045260246000fd5b90601f8019910116810190811067ffffffffffffffff821117620006d657604052565b81601f820112156200068e5780359067ffffffffffffffff8211620006d6576040519262000748601f8401601f191660200185620006ec565b828452602083830101116200068e57816000926020809301838601378301015290565b9181601f840112156200068e5782359167ffffffffffffffff83116200068e57602083818601950101116200068e57565b60806003198201126200068e576001600160a01b039160043583811681036200068e579260243590811681036200068e57916044359067ffffffffffffffff82116200068e57620007f0916004016200070f565b9060643590565b60005b8381106200080b5750506000910152565b8181015183820152602001620007fa565b91906080939160018060a01b03809216845216602083015260606040830152620008568151809281606086015260208686019101620007f7565b601f01601f1916010190565b908060209392818452848401376000828201840152601f01601f191601019056fe604060808152346200031a576200204090813803806200001f8162000335565b93843982016060838203126200031a576200003a836200035b565b6020906200004a8286016200035b565b858501516001600160401b03969194918782116200031a570190601f968188840112156200031a578251938185116200031f57601f199362000092868b018616880162000335565b95808752878701948882840101116200031a578488620000b3930162000370565b6001600160a01b03908116968715620002d657600080546001600160a01b03199081168a17825587519490939192908511620002c257600254946001958681811c91168015620002b7575b8b821014620002a3578d811162000259575b50898d8211600114620001db5791818d9e97959392600080516020620020208339815191529d9e9b9a999795938591620001cf575b50600019600383901b1c191690861b176002555b1692836200019a575b5050505062000184855196879581875251928380928801528787019062000370565b01168101030190a251611c8a9081620003968239f35b837f4dccf501bfd5c2f56d544e7d4df8b9c2a7c9f3509c40f20689a2f555932343139382541617905580a23880808062000162565b90508a01513862000145565b600285528a852090828a16865b818110620002435750928e9f98969492600080516020620020208339815191529e9f9c9b9a989694928289941062000229575b5050811b0160025562000159565b8c015160001960f88460031b161c1916905538806200021b565b8c830151845592890192918d01918d01620001e8565b600285528d8b86209080840160051c8201928d851062000299575b0160051c019087905b8281106200028d57505062000110565b8681550187906200027d565b9250819262000274565b634e487b7160e01b85526022600452602485fd5b90607f1690620000fe565b634e487b7160e01b83526041600452602483fd5b885162461bcd60e51b815260048101889052601460248201527f6f776e65722063616e6e6f74206265207a65726f0000000000000000000000006044820152606490fd5b600080fd5b634e487b7160e01b600052604160045260246000fd5b6040519190601f01601f191682016001600160401b038111838210176200031f57604052565b51906001600160a01b03821682036200031a57565b60005b838110620003845750506000910152565b81810151838201526020016200037356fe60806040526004361015610026575b361561001e5761001c611852565b005b61001c611852565b60003560e01c80630605062f14610146578063160fa69c1461014157806333eeb1471461013c57806334e866eb146101375780633fee7631146101325780634da34c2c1461012d5780635a4017eb14610128578063722713f7146101235780637a4a45771461011e5780637a5b4f59146101195780637bfa59e114610114578063918b5be11461010f57806397feb9261461010a578063d087d28814610105578063d93db24f14610100578063dd913689146100fb578063e59ae7e2146100f65763e6fcc84b0361000e57610f73565b610d7d565b610b5a565b610adf565b610ac1565b610973565b6107e7565b610790565b6106ae565b610605565b6105e9565b610562565b610325565b610240565b6101c0565b61019d565b610174565b3461016f57600036600319011261016f576000546040516001600160a01b039091168152602090f35b600080fd5b3461016f57600036600319011261016f576001546040516001600160a01b039091168152602090f35b3461016f57600036600319011261016f57602060ff600354166040519015158152f35b60008060031936011261022c576101dc60ff600354161561110c565b80546101f2906001600160a01b031615156112c8565b6101fd3415156112ff565b6040513481527fc2d51556169ea2945e00bed3ebc17be15ea075449b644a36f6e70b3789069f9760203392a280f35b80fd5b6001600160a01b0381160361016f57565b3461016f57602036600319011261016f5760043561025d8161022f565b6000805490916001600160a01b038083169161027a3384146110d4565b61028960ff600354161561110c565b169182156102c6576001600160a01b031916821783557fbe78e22398a7a0ee3cdf2de8b2992e29ab256bcb74f97432114d8841357a33cc8380a380f35b60405162461bcd60e51b81526020600482015260096024820152683d32b9379030b2323960b91b6044820152606490fd5b9181601f8401121561016f5782359167ffffffffffffffff831161016f576020838186019501011161016f57565b3461016f5760a036600319011261016f576004356103428161022f565b6024359067ffffffffffffffff60443581811161016f576103679036906004016102f7565b9390916064359460843591821161016f5782916103889036906004016102f7565b60035460ff16156103989061110c565b600554156103a59061136d565b6001600555874211156103b7906113a5565b6001546001600160a01b0390811692906103d28415156113db565b8816986103e1308b14156117b3565b6004549586918a6103f336898d61142f565b8051602091820120604080517f2f40b512f4de155cb5050692ad1b7d32a940a68a9621374a15aa9badf3dcbc8d9381019384526001600160a01b0394909416908401526060830194909452608082019390935260a081019390935260c0808401919091528252601f199161046860e08261128b565b5190209061047461157d565b60405161190160f01b60208201908152602282019290925260428101939093526062918201835291906104a7908261128b565b5190209136906104b69261142f565b6104bf916116c5565b6001600160a01b0316146104d290611466565b8215156000807fc38379c16e1d1d7ebf88c59590208007b9e8afc5b66a1287e872acba711bc096976105166105116105449761053896610551576114d7565b600455565b604051878161052681898d6117f3565b03925af161053261150f565b50611801565b6040519384938461183b565b0390a261001c6000600555565b61055d8a47101561149c565b6114d7565b3461016f57602036600319011261016f5760043561057f8161022f565b6000546001600160a01b03919061059990831633146110d4565b6105a860ff600354161561110c565b16806bffffffffffffffffffffffff60a01b60015416176001557f4dccf501bfd5c2f56d544e7d4df8b9c2a7c9f3509c40f20689a2f55593234313600080a2005b3461016f57600036600319011261016f57602047604051908152f35b3461016f5760008060031936011261022c5761062b60018060a01b0382541633146110d4565b600160ff1960035416176003557f684de059a53b7224f483b931f81fd3da9ecb8c85ad121460334ed8ea6ffdfb228180a180f35b60005b8381106106725750506000910152565b8181015183820152602001610662565b604091602082526106a2815180928160208601526020868601910161065f565b601f01601f1916010190565b3461016f5760008060031936011261022c5760405190806002546106d181611157565b80855291600191808316908115610766575060011461070b575b610707856106fb8187038261128b565b60405191829182610682565b0390f35b9250600283527f405787fa12a823e0f2b7631cc41b3ba8828b3321ca811111fa75cd3aa3bb5ace5b82841061074e5750505081016020016106fb826107076106eb565b80546020858701810191909152909301928101610733565b869550610707969350602092506106fb94915060ff191682840152151560051b82010192936106eb565b3461016f5760008060031936011261022c576107b660018060a01b0382541633146110d4565b60ff19600354166003557f90935f0ecfde7b896288a2e9fe3652923c453fcfa3009ff01913d009136a21d08180a180f35b3461016f5760208060031936011261016f5767ffffffffffffffff60043581811161016f5761081a9036906004016102f7565b9060009261083260018060a01b0385541633146110d4565b61084160ff600354161561110c565b821161096e5761085b82610856600254611157565b611191565b8293601f83116001146108c957508183947f1c306e70c05992619e2128ad1ef88df75f36c9476282e59f51401b2abaa42e4e94916108be575b508260011b906000198460031b1c1916176002555b6108b860405192839283611223565b0390a180f35b905081013538610894565b6002600052601f198316947f405787fa12a823e0f2b7631cc41b3ba8828b3321ca811111fa75cd3aa3bb5ace9185905b878210610956575050837f1c306e70c05992619e2128ad1ef88df75f36c9476282e59f51401b2abaa42e4e95961061093c575b5050600182811b016002556108a9565b820135600019600385901b60f8161c19169055388061092c565b806001849582949588013581550194019201906108f9565b611141565b3461016f57604036600319011261016f576004356109908161022f565b602435906109a360ff600354161561110c565b6000546001600160a01b03906109bc90821615156112c8565b6109c78315156112ff565b6040516370a0823160e01b808252306004830152918316936020939192918484602481895afa938415610a9757600094610a9c575b5090610a0b9130903390611b95565b6040519081523060048201528281602481875afa908115610a9757610a3993600092610a6a575b5050611360565b6040519081523391907f5e304cba0ba56eaba3cda17be476b52e13637ba5cc7a38837c26383c829106ed90602090a3005b610a899250803d10610a90575b610a81818361128b565b8101906112ad565b3880610a32565b503d610a77565b6112bc565b610a0b92919450610ab990863d8811610a9057610a81818361128b565b9390916109fc565b3461016f57600036600319011261016f576020600454604051908152f35b3461016f57602036600319011261016f5760246020600435610b008161022f565b6040516370a0823160e01b815230600482015292839182906001600160a01b03165afa8015610a9757602091600091610b3d575b50604051908152f35b610b549150823d8111610a9057610a81818361128b565b38610b34565b3461016f5760a036600319011261016f57600435610b778161022f565b602435610b838161022f565b604435916064359160843567ffffffffffffffff811161016f57610bab9036906004016102f7565b919060035460ff1615610bbd9061110c565b60055415610bca9061136d565b600160055584421115610bdc906113a5565b6001546001600160a01b039390841691610bf78315156113db565b600454604080517f77082fd3eed017bb89224264cc2644c716c7eba6ff036d0213d598b86d35075d602082019081526001600160a01b038a8116938301939093529187166060820152608081018b905260a0810183905260c08082019a909a529889529097601f199190610c6c60e08261128b565b51902090610c7861157d565b60405161190160f01b6020820190815260228201929092526042810193909352606291820183529190610cab908261128b565b519020913690610cba9261142f565b610cc3916116c5565b6001600160a01b031614610cd690611466565b6040516370a0823160e01b8152306004820152828416949085816024815a93602094fa918215610a97577f115f8bf631e94bc0c8138204470af0011086aaa122e21da191d154f32ed7b2ab95610d44610511869361055d8c610d49988198600091610d5f575b50101561149c565b611a9c565b6040519485521692602090a361001c6000600555565b610d77915060203d8111610a9057610a81818361128b565b38610d3c565b3461016f57608036600319011261016f57600435610d9a8161022f565b6024359060443560643567ffffffffffffffff811161016f57610511610e8f610f0686610f00610ef48897610eee610dd9610f129936906004016102f7565b92610de960ff600354161561110c565b610df56005541561136d565b6001600555610e06814211156113a5565b610ed7610ee360018060a01b039e8f610e2660015460018060a01b031690565b1699610e338b15156113db565b6004549c8d956040519687936020850195869094939260809260a08301967feef473479f26b389aff7d7728a75038733e0ff065c12888afab7b6562ec53b6b845260018060a01b03166020840152604083015260608201520152565b0393610ea3601f199586810183528261128b565b51902092610eaf61157d565b93604051938491602083019687909160429261190160f01b8352600283015260228201520190565b0390810183528261128b565b51902092369161142f565b906116c5565b6001600160a01b031690565b14611466565b61055d8647101561149c565b167fcbc4af2e0884f9174c58664733699db2b1a83adfa8bd511403e58f2f49cb3bb8610f63600093610f538580808085895af1610f4d61150f565b5061153f565b6040519081529081906020820190565b0390a2610f706000600555565b80f35b3461016f5760008060031936011261022c578054610f9b906001600160a01b031615156112c8565b610fa44661193d565b610fac611a15565b610fb461188f565b906030610fc08361190f565b536078610fcc8361191c565b53835b6014811061102757604051683234b21d32ba34391d60b91b6020820152610707906106fb816110198761100661100c8b6029860183565b9061179c565b601d60f91b815260010190565b03601f19810183528261128b565b611030816114e5565b90602091828110156110cf57611061611053600f809330901a60041c168661192c565b516001600160f81b03191690565b61107f611075611070856118bc565b6114f3565b91891a918761192c565b53611089826114e5565b928310156110cf576110536110a6916110ca9430901a168561192c565b6110c46110ba6110b5846118bc565b611501565b91881a918661192c565b53611880565b610fcf565b6118f9565b156110db57565b60405162461bcd60e51b81526020600482015260096024820152683737ba1037bbb732b960b91b6044820152606490fd5b1561111357565b60405162461bcd60e51b8152602060048201526006602482015265333937bd32b760d11b6044820152606490fd5b634e487b7160e01b600052604160045260246000fd5b90600182811c92168015611187575b602083101461117157565b634e487b7160e01b600052602260045260246000fd5b91607f1691611166565b601f811161119d575050565b600090600282527f405787fa12a823e0f2b7631cc41b3ba8828b3321ca811111fa75cd3aa3bb5ace906020601f850160051c830194106111f8575b601f0160051c01915b8281106111ed57505050565b8181556001016111e1565b90925082906111d8565b908060209392818452848401376000828201840152601f01601f1916010190565b916020611234938181520191611202565b90565b6040810190811067ffffffffffffffff82111761096e57604052565b6080810190811067ffffffffffffffff82111761096e57604052565b60a0810190811067ffffffffffffffff82111761096e57604052565b90601f8019910116810190811067ffffffffffffffff82111761096e57604052565b9081602091031261016f575190565b6040513d6000823e3d90fd5b156112cf57565b60405162461bcd60e51b81526020600482015260086024820152671b9bc81859d95b9d60c21b6044820152606490fd5b1561130657565b60405162461bcd60e51b81526020600482015260086024820152676e6f2076616c756560c01b6044820152606490fd5b634e487b7160e01b600052601160045260246000fd5b60001981019190821161135b57565b611336565b9190820391821161135b57565b1561137457565b60405162461bcd60e51b81526020600482015260096024820152681c99595b9d1c985b9d60ba1b6044820152606490fd5b156113ac57565b60405162461bcd60e51b8152602060048201526007602482015266195e1c1a5c995960ca1b6044820152606490fd5b156113e257565b60405162461bcd60e51b815260206004820152600960248201526837379039b4b3b732b960b91b6044820152606490fd5b67ffffffffffffffff811161096e57601f01601f191660200190565b92919261143b82611413565b91611449604051938461128b565b82948184528183011161016f578281602093846000960137010152565b1561146d57565b60405162461bcd60e51b81526020600482015260076024820152666261642073696760c81b6044820152606490fd5b156114a357565b60405162461bcd60e51b815260206004820152600c60248201526b1a5b9cdd59999a58da595b9d60a21b6044820152606490fd5b906001820180921161135b57565b90600c820180921161135b57565b600201908160021161135b57565b600301908160031161135b57565b3d1561153a573d9061152082611413565b9161152e604051938461128b565b82523d6000602084013e565b606090565b1561154657565b60405162461bcd60e51b815260206004820152600f60248201526e1d1c985b9cd9995c8819985a5b1959608a1b6044820152606490fd5b6f10595d1a195c9a585059d95b9d11125160821b602060405161159f81611237565b601081520152603160f81b60206040516115b881611237565b60018152015260405160208101907f8b73c3c69bb8fe3d512ecc4cf759cc79239f7b179b0ffacaa9a75d522b39400f82527f321acb64d587eed248d632a21d1ea5d272c6b48c65ae8af07443f02eb0a19ac460408201527fc89efdaa54c0f20c7adf612882df0950f5a951637e0307cdcb4c672f298b8bc660608201524660808201523060a082015260a0815260c0810181811067ffffffffffffffff82111761096e5760405251902090565b1561166c57565b60405162461bcd60e51b81526020600482015260016024820152603b60f91b6044820152606490fd5b1561169c57565b60405162461bcd60e51b81526020600482015260016024820152607360f81b6044820152606490fd5b604182510361176d578160009161174f6020809501519260606040820151910151851a93601b85148015611763575b6116fd90611665565b6117297f7fffffffffffffffffffffffffffffff5d576e7357a4501ddfe92f46681b20a0831115611695565b604051948594859094939260ff6060936080840197845216602083015260408201520152565b838052039060015afa15610a975760005190565b50601c85146116f4565b60405162461bcd60e51b815260206004820152600760248201526639b4b3903632b760c91b6044820152606490fd5b906117af6020928281519485920161065f565b0190565b156117ba57565b60405162461bcd60e51b81526020600482015260116024820152701cd95b198b58d85b1b08189b1bd8dad959607a1b6044820152606490fd5b908092918237016000815290565b1561180857565b60405162461bcd60e51b815260206004820152600b60248201526a195e1958c819985a5b195960aa1b6044820152606490fd5b604090611234949281528160208201520191611202565b6040513481527fc2d51556169ea2945e00bed3ebc17be15ea075449b644a36f6e70b3789069f9760203392a2565b600019811461135b5760010190565b604051906060820182811067ffffffffffffffff82111761096e57604052602a8252604082602036910137565b908160011b918083046002149015171561135b57565b90600a820291808304600a149015171561135b57565b60ff166030019060ff821161135b57565b634e487b7160e01b600052603260045260246000fd5b8051156110cf5760200190565b8051600110156110cf5760210190565b9081518110156110cf570160200190565b80156119f7578060008281935b6119e357508161195984611413565b93611967604051958661128b565b808552601f1961197682611413565b01366020870137905b6119895750505090565b6119929061134c565b91826119db6119d26119c26119bd6119b7600a8704966119b1886118d2565b90611360565b60ff1690565b6118e8565b60f81b6001600160f81b03191690565b841a918661192c565b53918261197f565b926119ef600a91611880565b93048061194a565b50604051611a0481611237565b60018152600360fc1b602082015290565b60405190611a2282611237565b601082526f181899199a1a9b1b9c1cb0b131b232b360811b6020830152565b9081602091031261016f5751801515810361016f5790565b15611a6057565b60405162461bcd60e51b81526020600482015260146024820152736572633230207472616e736665722066616c736560601b6044820152606490fd5b6000929183809360405190602082019363a9059cbb60e01b855260018060a01b03166024830152604482015260448152611ad581611253565b51925af1611ae161150f565b9015611b0e57805180611af2575050565b81602080611b0793611b0c9501019101611a41565b611a59565b565b60405162461bcd60e51b8152602060048201526013602482015272195c98cc8c081d1c985b9cd9995c8819985a5b606a1b6044820152606490fd5b15611b5057565b60405162461bcd60e51b815260206004820152601860248201527f6572633230207472616e7366657246726f6d2066616c736500000000000000006044820152606490fd5b9091600080949381946040519160208301946323b872dd60e01b865260018060a01b038092166024850152166044830152606482015260648152611bd88161126f565b51925af1611be461150f565b9015611c0f57805180611bf5575050565b81602080611c0a93611b0c9501019101611a41565b611b49565b60405162461bcd60e51b815260206004820152601760248201527f6572633230207472616e7366657246726f6d206661696c0000000000000000006044820152606490fdfea2646970667358221220ea0ee4e4641005fa4ef7969d4b04b117e52dd79297ec6b9632171ecfa360299c64736f6c634300081300333cce4487de92183aca1c8e2c2438bfc06c411d72ea16e9c3729ff4cc4edf5b6b3962bd8b9d38a59d631ff77404073ad4e1f81f50fd2e23a20f4162a7f747fd6aa264697066735822122083cc020bb6314c10befe2547146d8ca5a058441f865ed3e2dd0e638c675a8dc964736f6c63430008130033",
  "linkReferences": {},
  "deployedLinkReferences": {}
}